:020000040000FA
:06000000D8EF09F0120028
:06080000D8EF09F0120020
:060808007FEF08F0120072
:060818007FEF08F0120062
:06082A000100FC130000B8
:080830006000000082000000DE
:080838004AD86BD881A03DD025
:100840000001E36BE46BE56BE66BE251030B02E145
:100850008B8272D80001E251030B010809E18B92EF
:100860000F0EE66E78D8E552050EE66E74D8E552A6
:100870000001E251030B020802E18B92E5D800016E
:10088000E251030B030819E10001E13504E2E051F4
:10089000FF08000EE15505E2010EE66E5CD8E55258
:1008A0008B8282B006D0050EE66E55D8E5528B924B
:1008B00004D0080EE66E4FD8E552DCEC07F003C119
:1008C000E0F004C1E1F079EC08F0B7D712009480B1
:1008D000938094928B9293988A98939A8A9A939CF5
:1008E0008A9C0001E26BE36BE46BE56BE66B070E41
:1008F000F36FF26BF46BE96BEA6BF56BF66BF76B0E
:10090000F86BE76BED6BEE6BEF6B73EC08F0CBEF16
:1009100007F081B010D00001E32B000EE423E523A3
:10092000E6231E0EE31905E1E45103E1E55101E17F
:10093000E65101E1E22B12008A9C79EC08F00001FB
:10094000F26B080EF25D05E28A988A9A8A88F22B89
:10095000F8D78A8C1200D9CFE6FFE1CFD9FF8A9C65
:1009600079EC08F00001F26B080EF25D1CE28A9847
:10097000FE0EDB50080DF3CF00F0F4CF01F0600E57
:100980000026000E0122F2510F010024E96E000E34
:100990000120EA6EEF50E8B08A8AE8A08A9A8A8835
:1009A0000001F22BE1D78A8CE552E7CFD9FF120084
:1009B000D9CFE6FFE1CFD9FF080EE126DF6A010EAD
:1009C000DB6A020EDB6A010EF36E030EF3CFDBFF70
:1009D000010EF36E040EF3CFDBFF010EF36E050E76
:1009E000F3CFDBFF010EF36E060EF3CFDBFF010E3C
:1009F000F36E070EF3CFDBFF8A9C79EC08F0000161
:100A0000F26B080EF25D15E28A98D9CF00F0DACFCA
:100A100001F0F2510F010024E96E000E0120EA6E90
:100A2000EF50E8B08A8AE8A08A9A8A880001F22BFF
:100A3000E8D78A8C080EE15C02E2E16AE552E16ED9
:100A4000E552E7CFD9FF12000001E951EA1107E1B1
:100A5000F45101E1ADDF0001F40501E16DDFE80EC5
:100A60000001E91902E1030EEA1908E1E96BEA6BFA
:100A7000F42BF451010801E2F46B03D0E92B000ED2
:100A8000EA231200D9CFE6FFE1CFD9FF020EE1261B
:100A9000DE6ADD6ADCEC07F0D950FD0FE96EFF0E6F
:100AA000DA20EA6E010EEE1801E1ED501CE103C1FF
:100AB000DEFF04C1DDFFDECF00F0DDCF01F0013449
:100AC00004E20050FF08010E015405E2010E00018E
:100AD000F56FF66B03D00001F56BF66BF5C0F3FF15
:100AE000F6C0F4FF27D0D950FD0FE96EFF0EDA20D3
:100AF000EA6E020EEE1801E1ED501CE105C1DEFFC9
:100B000006C1DDFFDECF00F0DDCF01F0013404E2ED
:100B10000050FF08010E015405E2010E0001F76FBD
:100B2000F86B03D00001F76BF86BF7C0F3FFF8C068
:100B3000F4FF00D0020EE15C02E2E16AE552E16EF0
:100B4000E552E7CFD9FF12004B0E0001EFAF02D004
:100B5000D89003D0EE5D000EEF5904E2050EF06F61
:100B6000F16B50D07D0EEFAF02D0D89003D0EE5D88
:100B7000000EEF5904E20A0EF06FF16B43D0C80E7D
:100B8000EFAF02D0D89003D0EE5D000EEF5904E233
:100B90000F0EF06FF16B36D0FA0EEFAF02D0D89097
:100BA00003D0EE5D000EEF5904E2030EF06FF16B1F
:100BB00029D07D0EEFAF02D0D89003D0EE5D000EAD
:100BC000EF5904E2050EF06FF16B1CD0C80EEFAFC9
:100BD00002D0D89003D0EE5D000EEF5904E2070E6C
:100BE000F06FF16B0FD0FA0EEFAF02D0D89003D0B8
:100BF000EE5D000EEF5904E20A0EF06FF16B02D0C9
:100C0000EE6BEF6BED5104E18970EE2B000EEF23DC
:100C1000ED51006E016AF051001802E1F151011826
:0A0C200002E1ED6B01D0ED2B120094
:060C2A00D9CFE6FFE1CF87
:100C3000D9FF020EE126DE6ADD6ADECF00F0DDCFED
:100C400001F0013404E200500008000E01541EE3DC
:100C5000DECFE9FFDDCFEAFFD890E936EA36F90EBC
:100C6000E926000EEA22EF6ADECFE9FFDDCFEAFFD8
:100C7000D890E936EA36F90EE926000EEA22EE525D
:100C8000EF6ADF2A010E01E3DB2AD7D79390939214
:100C900093949396C50EE66E53EC09F0E552F28EEE
:100CA000F28C020EE15C02E2E16AE552E16EE5528D
:100CB000E7CFD9FF1200D9CFE6FFE1CFD9FF020E6F
:100CC000E126DE6ADD6ADECF00F0DDCF01F0D890EC
:100CD000015004E6010E005C000E015801E3D1D082
:100CE000DECFE9FFDDCFEAFFD890E936EA36F90E2C
:100CF000E926000EEA22EF0459E1DECFE9FFDDCF5D
:100D0000EAFFD890E936EA36F90EE926000EEA2223
:100D1000EE52EF500FE1DECFE9FFDDCFEAFFD890D2
:100D2000E936EA36F90EE926000EEA22EE52060E00
:100D3000EF6E3BD0DECFE9FFDDCFEAFFD890E9369A
:100D4000EA36F90EE926000EEA22EE52EF5060086C
:100D50001EE1DECFE9FFDDCFEAFFD890E936EA36C3
:100D6000F90EE926000EEA22EE52EF6ADECFE9FF25
:100D7000DDCFEAFFD890E936EA36F90EE926000E13
:100D8000EA22EF5002E0000E01D0010E0ED0DECFBD
:100D9000E9FFDDCFEAFFD890E936EA36F90EE92619
:100DA000000EEA22EE52EF9EEF4666D0DECFE9FF5C
:100DB000DDCFEAFFD890E936EA36F90EE926000ED3
:100DC000EA22EF50020858E1DECFE9FFDDCFEAFF6B
:100DD000D890E936EA36F90EE926000EEA22EE52FC
:100DE000EF500FE1DECFE9FFDDCFEAFFD890E93623
:100DF000EA36F90EE926000EEA22EE52600EEF6E98
:100E00003BD0DECFE9FFDDCFEAFFD890E936EA3606
:100E1000F90EE926000EEA22EE52EF5006081EE116
:100E2000DECFE9FFDDCFEAFFD890E936EA36F90EEA
:100E3000E926000EEA22EE52EF6ADECFE9FFDDCFAF
:100E4000EAFFD890E936EA36F90EE926000EEA22E2
:100E5000EF5002E0000E01D0010E0ED0DECFE9FF10
:100E6000DDCFEAFFD890E936EA36F90EE926000E22
:100E7000EA22EE52EF90EF42DF2A010E01E3DB2A75
:100E800022D7040E0001FA15000802E3000E01D07B
:100E9000010EE8B08A80E8A08A90080EFA150008D2
:100EA00002E3000E01D0010EE8B08A82E8A08A9227
:100EB000100EFA15000802E3000E01D0010EE8B092
:100EC0008A84E8A08A94200EFA15000802E3000E36
:100ED00001D0010EE8B08A86E8A08A96E66A400E44
:100EE000E66E74EC09F0E552E552020EE15C02E2B6
:100EF000E16AE552E16EE552E7CFD9FF1200D9CFA2
:100F0000E6FFE1CFD9FFFE0EDBCF00F000343FE279
:100F1000FE0EDBCF01F0010EE76E0118E8AE02D045
:100F2000013403D0E750D880015431E3FE0EDBCF0B
:100F3000E9FFEA6AE9BEEA68D890E936EA36F90ECE
:100F4000E926000EEA22EF5022E1FD0EDB0410E15B
:100F5000FE0EDBCFE9FFEA6AE9BEEA68D890E9361F
:100F6000EA36F90EE926000EEA22010EEF6E0FD0E6
:100F7000FE0EDBCFE9FFEA6AE9BEEA68D890E936FF
:100F8000EA36F90EE926000EEA22020EEF6EE5526D
:060F9000E7CFD9FF1200BB
:0A0F96009280929292949296929AA1
:100FA0000E0EE66E040EE66EE90EE66E1CEC09F01F
:100FB000E552E552E5521200010100510A0A01E131
:100FC0007FD0030A01E177D0010A63E00F0A5CE0F9
:100FD000010A48E0030A41E0010A2DE0070A26E081
:100FE000010A12E0030A0BE0010A01E07BD0870E40
:100FF000E66EACEC09F0E5520101002B73D0FBEC7E
:1010000009F00101002B6ED0F6EC09F000090DE1AA
:10101000E6EC09F0F3CF01F1F4CF02F18F0EE66EAA
:10102000ACEC09F0E5520101002B5CD0FBEC09F0BF
:101030000101002B57D0F6EC09F000090DE1E6ECB8
:1010400009F0F3CF03F1F4CF04F1970EE66EACECA8
:1010500009F0E5520101002B45D0FBEC09F001013C
:10106000002B40D0F6EC09F000090DE1E6EC09F0A8
:10107000F3CF05F1F4CF06F19F0EE66EACEC09F06C
:10108000E5520101002B2ED0FBEC09F00101002BF1
:1010900029D0F6EC09F000090DE1E6EC09F0F3CFF8
:1010A00007F1F4CF08F1A70EE66EACEC09F0E552BB
:1010B0000101002B17D0FBEC09F00101002B12D02D
:1010C000F6EC09F000090DE1E6EC09F0F3CF09F1C7
:1010D000F4CF0AF1870EE66EACEC09F0E55201019F
:0610E000006B00D01200BD
:0A10E600530EE66E90EC09F0E5529F
:1010F0001200F2B402D00000FCD7F2941200DACF52
:10110000E4FFE2CFDAFFE9CFE4FFEACFE4FFF6CF76
:10111000E4FFF7CFE4FFF5CFE4FFF3CFE4FFF4CF34
:10112000E4FFFACFE4FF00EE04F0020EE80403E36C
:10113000EECFE4FFFBD700EE00F0040EE80403E37B
:10114000EECFE4FFFBD7E6529EA003D05BEC06F0A7
:101150009E90E55200EE03F0040EE80403E3E5CFB1
:10116000EDFFFBD700EE05F0020EE80403E3E5CF48
:10117000EDFFFBD7E5CFFAFFE5CFF4FFE5CFF3FFB7
:10118000E5CFF5FFE5CFF7FFE5CFF6FFE5CFEAFFC7
:0A119000E5CFE9FFE5CFDAFF11001B
:06119A002A0EF66E080E9D
:1011A000F76E000EF86E01010900F550106F09008E
:1011B000F550116F03E1106701D03DD00900F550E3
:1011C0000B6F0900F5500C6F0900F5500D6F090009
:1011D0000900F550E96E0900F550EA6E09000900B2
:1011E0000900F5500E6F0900F5500F6F0900090056
:1011F000F6CF12F1F7CF13F1F8CF14F10BC1F6FFD0
:101200000CC1F7FF0DC1F8FF01010E5302E10F53AE
:1012100007E00900F550EE6E0E07F8E20F07F9D768
:1012200012C1F6FF13C1F7FF14C1F8FF0101100747
:08123000000E115BBFD7120094
:08123800D9CFE6FFDACFE6FF93
:10124000E1CFD9FFE2CFDAFFC26AC06AFC0EDB4011
:101250007F0B3C0BC26EFB0EDBCFE6FFFC0EDB38D8
:10126000F00B300BE552E710C16EFD0EDB50040DA4
:10127000F350380B016EFD0EDB380F0B070B006EC1
:10128000FD0EDB50800B00100110C06EFC0EDBAEBB
:1012900003D09E9C9D8CF28CC280E552E5CFDAFF94
:0612A000E7CFD9FF1200A8
:0A12A600D9CFE6FFDACFE6FFE1CF73
:1012B000D9FFE2CFDAFFFD0EDB507E0BCD6EFD0EC7
:1012C000DBAC02D0CD8E01D0CD9ECF6ACE6A9E908F
:1012D000DBAE02D09D8001D09D90CD80E552E5CF60
:0812E000DAFFE7CFD9FF12008D
:0812E800D9CFE6FFDACFE6FFE3
:1012F000E1CFD9FFE2CFDAFFE652E652FC0EDBCFB8
:10130000DEFFDBCFDDFF010EDB50CF6EDF50CE6E98
:10131000E552E552E552E5CFDAFFE7CFD9FF1200FB
:10132000D9CFE6FFDACFE6FFE1CFD9FFE2CFDAFF90
:10133000FD0EDB507F0BD56ED76AD66AF294FD0E98
:10134000DBAE02D0F28A01D0F29AD58EE552E5CF1B
:08135000DAFFE7CFD9FF12001C
:08135800D9CFE6FFDACFE6FF72
:10136000E1CFD9FFE2CFDAFFC30EC214006EFD0E4B
:10137000DB407F0B3C0B0010C26EE552E5CFDAFF7D
:06138000E7CFD9FF1200C7
:0A1386000001FB6B020EFC6F8A9E53
:10139000939E12000001FB51FB2B0A0801E2FB6B3C
:1013A000FB51D880FC5502E28A8E01D08A9E120041
:1013B00013EE00F023EE00F0F86A059CCDEC08F087
:0C13C000FDEC09F01CEC04F0FBD712005F
:0413CC00C450036E98
:0E13D000026AC3500210F36E03C0F4FF120055
:0213DE0000EE1F
:0C13E00000F00F0EEE6AEA62FDD712006A
:0413EC00C250020BDE
:0613F00001E0010E1200F5
:0413F600C28212009D
:0213FA001200DF
:0413FC0000000001EC
:1014000000000001000000010000010000000001D8
:1014100000010000000000010100000000000100C8
:1014200000000001000001000000010000000100B8
:1014300000010000000001000100000000010000A8
:101440000000010000010000000100000001000098
:101450000100000001000000000000010100000088
:101460000000010001000000000100000100000078
:0E14700001000000000100000000000100006B
:00000001FF
